{
  "contractName": "RazorTest",
  "abi": [
    {
      "payable": true,
      "stateMutability": "payable",
      "type": "fallback"
    },
    {
      "constant": false,
      "inputs": [
        {
          "internalType": "uint256",
          "name": "_interval",
          "type": "uint256"
        },
        {
          "internalType": "uint256",
          "name": "_no_of_intervals",
          "type": "uint256"
        }
      ],
      "name": "CustomPaymentType",
      "outputs": [
        {
          "internalType": "uint256",
          "name": "",
          "type": "uint256"
        }
      ],
      "payable": false,
      "stateMutability": "nonpayable",
      "type": "function"
    },
    {
      "constant": false,
      "inputs": [
        {
          "internalType": "address payable",
          "name": "_to",
          "type": "address"
        },
        {
          "internalType": "uint256",
          "name": "_amount",
          "type": "uint256"
        }
      ],
      "name": "MakePayment",
      "outputs": [],
      "payable": false,
      "stateMutability": "nonpayable",
      "type": "function"
    }
  ],
  "bytecode": "0x608060405234801561001057600080fd5b5061027c806100206000396000f3fe6080604052600436106100295760003560e01c80635056f2c91461002b578063f928356714610086575b005b34801561003757600080fd5b506100846004803603604081101561004e57600080fd5b81019080803573ffffffffffffffffffffffffffffffffffffffff169060200190929190803590602001909291905050506100df565b005b34801561009257600080fd5b506100c9600480360360408110156100a957600080fd5b8101908080359060200190929190803590602001909291905050506101a3565b6040518082815260200191505060405180910390f35b803373ffffffffffffffffffffffffffffffffffffffff16311161010257600080fd5b8173ffffffffffffffffffffffffffffffffffffffff163373ffffffffffffffffffffffffffffffffffffffff16141561013b57600080fd5b600054421161014957600080fd5b8173ffffffffffffffffffffffffffffffffffffffff166108fc829081150290604051600060405180830381858888f1935050505015801561018f573d6000803e3d6000fd5b5061019e6001546002546101a3565b505050565b6000826001819055508160028190555060018314156101d257603c820242016000819055506000549050610241565b60028314156101f257610e10820242016000819055506000549050610241565b60038314156102135762015180820242016000819055506000549050610241565b60048314156102345762278d00820242016000819055506000549050610241565b600a820242016000819055505b9291505056fea265627a7a723158209abf9e680adc9dab3f57a96d47349923e46533641e43feca40eef2bd67b7153064736f6c63430005100032",
  "source": "pragma solidity ^0.5.0;\n\ncontract RazorTest{\n    uint256 deadline;\n    uint256 interval;\n    uint256 Interval_duration;\n    \n    function() external payable { } //fallback function to receive payments from user to contract\n\n    function CustomPaymentType(uint256 _interval, uint256 _no_of_intervals) public returns(uint256) {\n        // select among the options to set the payment type:\n        // 1 => minutes\n        // 2 => hourly\n        // 3 => day wise\n        // 4 => month wise\n        interval=_interval;\n        Interval_duration=_no_of_intervals;\n        if(_interval == 1){\n            deadline= now + (_no_of_intervals* 1 minutes);          // Calculating deadline according to the user \n            return deadline;\n        }\n        else if(_interval == 2){\n            deadline= now + (_no_of_intervals* 1 hours);\n            return deadline;\n        }\n        else if(_interval == 3){\n            deadline= now + (_no_of_intervals* 1 days);\n            return deadline;\n        }\n        else if(_interval == 4){\n            deadline= now + (_no_of_intervals* 30 days);\n            return deadline;\n        }\n        else deadline = now + (_no_of_intervals * 10 seconds); // For testing the working of the code faster\n    }\n    \n    function MakePayment(address payable _to, uint256 _amount) public {\n        require(msg.sender.balance>_amount);            // Checking for balance to be greater than the value \n        require(msg.sender!=_to);                       // For making transfer possible only for the consumers\n        require(now>deadline);                          // Checking if it's time to make the payment\n        _to.transfer(_amount);\n        CustomPaymentType(interval,Interval_duration);  // Calls the function to continuously check for payment times and block payments during the other times\n    }\n}\n",
  "sourcePath": "/home/kalpita/RazorNetworks/Recurring-Transactions/contracts/Razor-Test.sol",
  "compiler": {
    "name": "solc",
    "version": "0.5.16+commit.9c3226ce.Emscripten.clang"
  },
  "schemaVersion": "3.2.2",
  "updatedAt": "2020-07-29T21:02:43.298Z",
  "networkType": "ethereum",
  "devdoc": {
    "methods": {}
  },
  "userdoc": {
    "methods": {}
  }
}